:10015A000A0EC0F9A4B0999282F8809006080803A2
:04016A004621060E16
:10012A00EF1392B2EFA2E192B3A2E292B4C2B5D2B5
:08013A00B5D2B5C2B5AF9022A9
:10014200E4FDFCC3ED9FEE6480F8EC6480985007F8
:070152000DBD00010C80EC63
:010159002283
:0F016F00758920758DFD759850D28E75A89022D8
:03002300020003D5
:10000300C0E0C0D0309814859918C298E51824CF61
:100013006007047006C2B78002D2B7D0D0D0E032F6
:08017E008F993099FDC299220E
:1000B20012016FE4FBE4FA75A008740F2BF8E6F561
:1000C2008053807F7FF47E01120142AF0312012A26
:1000D200E59075F06484F519E59075F00A8475F081
:1000E2000A8485F01AE59075F00A84A9F075A004D7
:1000F200740E2519F8E6F5807FF412014275A0020C
:10010200740E251AF8E6F58012014275A001740EEC
:1001120029F8E6F5801201420ABA1E9BAF9012013D
:070122007E0BEB6408708EF8
:0101290022B3
:03000000020026D5
:0C002600787FE4F6D8FD75811A02006DA9
:100032000200B2E493A3F8E493A34003F68001F232
:1000420008DFF48029E493A3F85407240CC8C333CF
:10005200C4540F4420C8834004F456800146F6DF9E
:10006200E4800B010204081020408090015AE47ED3
:10007200019360BCA3FF543F30E509541FFEE49393
:10008200A360010ECF54C025E060A840B8E493A35A
:10009200FAE493A3F8E493A3C8C582C8CAC583CA85
:1000A200F0A3C8C582C8CAC583CADFE9DEE780BE3D
:01016E000090
:00000001FF
