:10000E000A0EC0F9A4B0999282F8809006080803EF
:04001E004621060E63
:1001BB00EF1392B2EFA2E192B3A2E292B4C2B5D224
:0801CB00B5D2B5C2B5AF902218
:1001D300E4FDFCC3ED9FEE6480F8EC648098500767
:0701E3000DBD00010C80ECD2
:0101EA0022F2
:1001EB0075892275A892758DFD759850758850226A
:0300230002019B3C
:10019B00C0E0C0D0309814859918C298E51824CFC8
:1001AB006007047006C2B78002D2B7D0D0D0E0325D
:03000B0002012AC5
:10012A00B2A5B2A5B2A5B2A5B2A5B2A5B2A5B2A50D
:10013A00B2A5B2A5B2A5B2A5B2A5B2A5B2A5B2A5FD
:10014A00B2A5B2A5B2A5B2A5B2A5B2A5B2A5B2A5ED
:10015A00B2A5B2A5B2A5B2A5B2A5B2A5B2A5B2A5DD
:10016A00B2A5B2A5B2A5B2A5B2A5B2A5B2A5B2A5CD
:10017A00B2A5B2A5B2A5B2A5B2A5B2A5B2A5B2A5BD
:10018A00B2A5B2A5B2A5B2A5B2A5B2A5B2A5B2A5AD
:01019A003232
:080003008F993099FDC299228A
:1000B2001201EBE4FBE4FA75A008740F2BF8E6F5E5
:1000C2008053807F7FF47E011201D3AF031201BB04
:1000D200E59075F06484F519E59075F00A8475F081
:1000E2000A8485F01AE59075F00A84A9F075A004D7
:1000F200740E2519F8E6F5807FF41201D375A0027B
:10010200740E251AF8E6F5801201D375A001740E5B
:1001120029F8E6F5801201D30ABA1E9BAF901200AD
:07012200030BEB6408708E73
:0101290022B3
:03000000020026D5
:0C002600787FE4F6D8FD75811A02006DA9
:100032000200B2E493A3F8E493A34003F68001F232
:1000420008DFF48029E493A3F85407240CC8C333CF
:10005200C4540F4420C8834004F456800146F6DF9E
:10006200E4800B010204081020408090000EE47E20
:10007200019360BCA3FF543F30E509541FFEE49393
:10008200A360010ECF54C025E060A840B8E493A35A
:10009200FAE493A3F8E493A3C8C582C8CAC583CA85
:1000A200F0A3C8C582C8CAC583CADFE9DEE780BE3D
:0100220000DD
:00000001FF
